S01200004C43445F4472697665722E7372656374
S11300000C942A000C943F000C943F000C943F0085
S11300100C943F000C943F000C943F000C943F0060
S11300200C943F000C943F000C943F000C943F0050
S11300300C943F000C943F000C943F000C943F0040
S11300400C943F000C943F000C943F000C943F0030
S11300500C943F0011241FBECFE5D8E0DEBFCDBF16
S113006010E0A0E6B0E0E8E4FAE002C005900D92EA
S1130070A03CB107D9F70E94A0030C9422050C946C
S11300800000813051F018F0823069F0089541E0A9
S113009060E084E10E94BF00089541E066E088E2E8
S11300A00E94BF00089541E062E088E20E94BF0020
S11300B00895CF93DF9300D0CDB7DEB719821A82AB
S11300C08130F1F018F08230A9F14DC0AE014F5FDC
S11300D05F4F60E084E10E94AB01AE014E5F5F4F71
S11300E060E084E10E94AB0107C0AE014E5F5F4F48
S11300F060E084E10E94AB018A818130B1F333C0B6
S1130100AE014F5F5F4F66E088E20E94AB01AE0133
S11301104E5F5F4F66E088E20E94AB0107C0AE010C
S11301204E5F5F4F66E088E20E94AB018A818130B6
S1130130B1F319C0AE014F5F5F4F62E088E20E94E5
S1130140AB01AE014E5F5F4F62E088E20E94AB01FB
S113015007C0AE014E5F5F4F62E088E20E94AB01D0
S11301608A818130B1F38FE39CE90197F1F700C0F4
S1130170000089810F900F90DF91CF910895413055
S1130180B9F58431A1F018F48A3031F008958E3134
S1130190C9F0883211F108952AB381E090E002C0D9
S11301A0880F991F6A95E2F7822B8ABB089527B3BB
S11301B081E090E002C0880F991F6A95E2F7822BD4
S11301C087BB089524B381E090E002C0880F991F93
S11301D06A95E2F7822B84BB089521B381E090E015
S11301E002C0880F991F6A95E2F7822B81BB08959C
S11301F041113AC08431A9F018F48A3031F00895DD
S11302008E31D9F0883229F108952AB381E090E043
S113021002C0880F991F6A95E2F7809582238ABBF2
S1130220089527B381E090E002C0880F991F6A9572
S1130230E2F78095822387BB089524B381E090E0A0
S113024002C0880F991F6A95E2F78095822384BBC8
S1130250089521B381E090E002C0880F991F6A9548
S1130260E2F78095822381BB08954130B9F584314A
S1130270A1F018F48A3031F008958E31C9F0883233
S113028011F108952BB381E090E002C0880F991F0B
S11302906A95E2F7822B8BBB089528B381E090E046
S11302A002C0880F991F6A95E2F7822B88BB0895D4
S11302B025B381E090E002C0880F991F6A95E2F7A8
S11302C0822B85BB089522B381E090E002C0880FA1
S11302D0991F6A95E2F7822B82BB089541113AC0B7
S11302E08431A9F018F48A3031F008958E31D9F0B0
S11302F0883229F108952BB381E090E002C0880F81
S1130300991F6A95E2F7809582238BBB089528B3E1
S113031081E090E002C0880F991F6A95E2F780950A
S1130320822388BB089525B381E090E002C0880F42
S1130330991F6A95E2F78095822385BB089522B3BD
S113034081E090E002C0880F991F6A95E2F78095DA
S1130350822382BB08958431A1F018F48A3031F0ED
S113036008958E31C9F0883211F1089589B390E06F
S113037002C0959587956A95E2F78170FA018083AA
S1130380089586B390E002C0959587956A95E2F743
S11303908170FA018083089583B390E002C095953B
S11303A087956A95E2F78170FA018083089580B396
S11303B090E002C0959587956A95E2F78170FA01FD
S11303C0808308958431A1F018F48A3031F00895BF
S11303D08E31C9F0883211F108952BB381E090E099
S11303E002C0880F991F6A95E2F782278BBB089594
S11303F028B381E090E002C0880F991F6A95E2F764
S1130400822788BB089525B381E090E002C0880F5D
S1130410991F6A95E2F7822785BB089522B381E08C
S113042090E002C0880F991F6A95E2F7822782BB89
S11304300895CF93C82F40E061E084E10E94350124
S113044040E062E084E10E94350140E063E084E141
S11304500E9435018BB39C2F907F8F70892B8BBBAF
S113046041E063E084E10E9435018FE99FE0019758
S1130470F1F700C0000040E063E084E10E94350130
S113048020E1C29FC00111249BB39F70892B8BBBB9
S113049041E063E084E10E9435018FE99FE0019728
S11304A0F1F700C0000040E063E084E10E94350100
S11304B08FE19EE40197F1F700C00000CF91089509
S11304C041E061E084E10E94BF0041E062E084E138
S11304D00E94BF0041E063E084E10E94BF0041E06C
S11304E064E08AE00E94BF0041E065E08AE00E9487
S11304F0BF0041E066E08AE00E94BF0041E067E09F
S11305008AE00E94BF002FEF81EE94E021508040EA
S11305109040E1F700C0000083E30E94190282E3E7
S11305200E94190288E20E9419028CE00E941902BA
S113053081E00E94190286E00E94190282E00E9472
S113054019020895CF93C82F41E061E084E10E942D
S1130550350140E062E084E10E94350140E063E05F
S113056084E10E9435018BB39C2F907F8F70892B7F
S11305708BBB41E063E084E10E9435018FE99FE099
S11305800197F1F700C0000040E063E084E10E94BD
S1130590350120E1C29FC00111249BB39F70892BB8
S11305A08BBB41E063E084E10E9435018FE99FE069
S11305B00197F1F700C0000040E063E084E10E948D
S11305C035018FE19EE40197F1F700C00000CF915F
S11305D00895CF92DF92EF92FF921F93CF93DF9310
S11305E0CDB7DEB72A970FB6F894DEBF0FBECDBFE6
S11305F06B017C0199235CF48DE20E94A202F094C9
S1130600E094D094C094C11CD11CE11CF11C10E0F6
S113061015C0C701B6012AE030E040E050E00E9476
S1130620E104E1E0F0E0EC0FFD1FE10FF11D605D7E
S11306306083C22ED32EE42EF52E1F5F1C141D04DE
S11306401E041F0414F41A3020F311500AC0E1E010
S1130650F0E0EC0FFD1FE10FF11D80810E94A2026A
S113066011501111F4CF89810E94A2022A960FB66B
S1130670F894DEBF0FBECDBFDF91CF911F91FF90E5
S1130680EF90DF90CF9008950F931F93CF938C0139
S1130690C0E003C00E94A202CF5FF801EC0FF11D7D
S11306A080818111F7CFCF911F910F910895CF933E
S11306B0DF9300D0CDB7DEB790E8998390EC9A83AE
S11306C0E1E0F0E0EC0FFD1FE80FF11D8081860FE3
S11306D00E9419020F900F90DF91CF91089581E04D
S11306E00E9419020895813051F018F0823069F0A7
S11306F0089540E062E08EE10E94BF00089540E06A
S113070067E08EE10E94BF00089540E063E088E264
S11307100E94BF000895813049F018F0823059F0EA
S1130720089562E08EE10E94E201089567E08EE19F
S11307300E94E201089563E088E20E94E2010895C4
S113074080E00E94730381E00E94730382E00E94B0
S1130750730380E00E94410081E00E94410082E036
S11307600E9441000E94600263E080E00E945703FF
S113077080E690E00E94440380E00E948B0381E0C5
S11307800E948B0382E00E948B032FEF84E39CE0A2
S1130790215080409040E1F700C0000080E00E94BA
S11307A08B0381E00E948B0382E00E948B032FEF76
S11307B085EA9EE0215080409040E1F700C00000AF
S11307C080E00E948B0381E00E948B0382E00E9400
S11307D08B032FEF84E39CE0215080409040E1F7AD
S11307E000C0000080E00E948B0381E00E948B0324
S11307F082E00E948B032FEF85EA9EE02150804027
S11308009040E1F700C0000080E00E948B0381E08B
S11308100E948B0382E00E948B032FEF84E39CE011
S1130820215080409040E1F700C0000080E00E9429
S11308308B0381E00E948B0382E00E948B030E9461
S11308406F0389E690E00E94440380E00E948B03DA
S11308502FEF84E39CE0215080409040E1F700C0FA
S1130860000081E00E948B032FEF84E39CE0215081
S113087080409040E1F700C0000082E00E948B03BA
S11308802FEF85EA9EE0215080409040E1F700C0C0
S1130890000080E00E948B032FEF84E39CE0215052
S11308A080409040E1F700C0000081E00E948B038B
S11308B02FEF84E39CE0215080409040E1F700C09A
S11308C0000082E00E948B030E946F03C0E0C12CF1
S11308D0D12C760180E00E9459008130F1F480E04F
S11308E00E948B030E946F038BE790E00E944403F5
S11308F02FEF89E698E1215080409040E1F700C055
S1130900000080E00E948B030E946F032FEFC21A45
S1130910D20AE20AF20AC1E0DDCF81E00E94590066
S11309208130E9F40E948B030E946F038FE890E00A
S11309300E9444038FEF99E628E1815090402040C3
S1130940E1F700C0000081E00E948B030E946F0366
S113095082E0C80ED11CE11CF11CC1E0BBCF82E0D7
S11309600E9459008130F1F482E00E948B030E94BE
S11309706F0383EA90E00E9444039FEF29E688E135
S1130980915020408040E1F700C0000082E00E94C6
S11309908B030E946F0393E0C90ED11CE11CF11C70
S11309A0C1E098CFCC2309F495CF0E946F0387EB65
S11309B090E00E944403C701B6010E94E902C0E02E
S11309C089CF052E97FB1EF400940E94F80457FD6E
S11309D007D00E94000507FC03D04EF40C94F804E1
S11309E050954095309521953F4F4F4F5F4F089557
S11309F090958095709561957F4F8F4F9F4F089587
S1130A00A1E21A2EAA1BBB1BFD010DC0AA1FBB1F0E
S1130A10EE1FFF1FA217B307E407F50720F0A21B80
S1130A20B30BE40BF50B661F771F881F991F1A94ED
S1130A3069F760957095809590959B01AC01BD0117
S10B0A40CF010895F894FFCFE3
S1130A4857454C434F4D45210050726573732061DF
S1130A586E7920427574746F6E2100427574746FD8
S1130A686E20302C20436C69636B73202B31004259
S1130A787574746F6E20312C20436C69636B73201A
S1130A882B3200427574746F6E20322C20436C69CB
S1130A98636B73202B3300436C69636B733D2000D5
S9030000FC
