:100000000C942A000C943F000C943F000C943F0089
:100010000C943F000C943F000C943F000C943F0064
:100020000C943F000C943F000C943F000C943F0054
:100030000C943F000C943F000C943F000C943F0044
:100040000C943F000C943F000C943F000C943F0034
:100050000C943F0011241FBECFE5D8E0DEBFCDBF1A
:1000600010E0A0E6B0E0E4EDFAE002C005900D92E9
:10007000A63DB107D9F70E94BF030C9468050C9404
:100080000000813051F018F0823069F0089541E0AD
:1000900060E084E10E94BF00089541E066E088E2EC
:1000A0000E94BF00089541E062E088E20E94BF0024
:1000B0000895CF93DF9300D0CDB7DEB719821A82AF
:1000C0008130F1F018F08230A9F14DC0AE014F5FE0
:1000D0005F4F60E084E10E94AB01AE014E5F5F4F75
:1000E00060E084E10E94AB0107C0AE014E5F5F4F4C
:1000F00060E084E10E94AB018A818130B1F333C0BA
:10010000AE014F5F5F4F66E088E20E94AB01AE0137
:100110004E5F5F4F66E088E20E94AB0107C0AE0110
:100120004E5F5F4F66E088E20E94AB018A818130BA
:10013000B1F319C0AE014F5F5F4F62E088E20E94E9
:10014000AB01AE014E5F5F4F62E088E20E94AB01FF
:1001500007C0AE014E5F5F4F62E088E20E94AB01D4
:100160008A818130B1F38FE39CE90197F1F700C0F8
:10017000000089810F900F90DF91CF910895413059
:10018000B9F58431A1F018F48A3031F008958E3138
:10019000C9F0883211F108952AB381E090E002C0DD
:1001A000880F991F6A95E2F7822B8ABB089527B3BF
:1001B00081E090E002C0880F991F6A95E2F7822BD8
:1001C00087BB089524B381E090E002C0880F991F97
:1001D0006A95E2F7822B84BB089521B381E090E019
:1001E00002C0880F991F6A95E2F7822B81BB0895A0
:1001F00041113AC08431A9F018F48A3031F00895E1
:100200008E31D9F0883229F108952AB381E090E047
:1002100002C0880F991F6A95E2F7809582238ABBF6
:10022000089527B381E090E002C0880F991F6A9576
:10023000E2F78095822387BB089524B381E090E0A4
:1002400002C0880F991F6A95E2F78095822384BBCC
:10025000089521B381E090E002C0880F991F6A954C
:10026000E2F78095822381BB08954130B9F584314E
:10027000A1F018F48A3031F008958E31C9F0883237
:1002800011F108952BB381E090E002C0880F991F0F
:100290006A95E2F7822B8BBB089528B381E090E04A
:1002A00002C0880F991F6A95E2F7822B88BB0895D8
:1002B00025B381E090E002C0880F991F6A95E2F7AC
:1002C000822B85BB089522B381E090E002C0880FA5
:1002D000991F6A95E2F7822B82BB089541113AC0BB
:1002E0008431A9F018F48A3031F008958E31D9F0B4
:1002F000883229F108952BB381E090E002C0880F85
:10030000991F6A95E2F7809582238BBB089528B3E5
:1003100081E090E002C0880F991F6A95E2F780950E
:10032000822388BB089525B381E090E002C0880F46
:10033000991F6A95E2F78095822385BB089522B3C1
:1003400081E090E002C0880F991F6A95E2F78095DE
:10035000822382BB08958431A1F018F48A3031F0F1
:1003600008958E31C9F0883211F1089589B390E073
:1003700002C0959587956A95E2F78170FA018083AE
:10038000089586B390E002C0959587956A95E2F747
:100390008170FA018083089583B390E002C095953F
:1003A00087956A95E2F78170FA018083089580B39A
:1003B00090E002C0959587956A95E2F78170FA0101
:1003C000808308958431A1F018F48A3031F00895C3
:1003D0008E31C9F0883211F108952BB381E090E09D
:1003E00002C0880F991F6A95E2F782278BBB089598
:1003F00028B381E090E002C0880F991F6A95E2F768
:10040000822788BB089525B381E090E002C0880F61
:10041000991F6A95E2F7822785BB089522B381E090
:1004200090E002C0880F991F6A95E2F7822782BB8D
:100430000895CF93C82F40E061E084E10E94350128
:1004400040E062E084E10E94350140E063E084E145
:100450000E9435018BB39C2F907F8F70892B8BBBB3
:1004600041E063E084E10E9435018FE99FE001975C
:10047000F1F700C0000040E063E084E10E94350134
:1004800020E1C29FC00111249BB39F70892B8BBBBD
:1004900041E063E084E10E9435018FE99FE001972C
:1004A000F1F700C0000040E063E084E10E94350104
:1004B0008FE19EE40197F1F700C00000CF9108950D
:1004C00041E061E084E10E94BF0041E062E084E13C
:1004D0000E94BF0041E063E084E10E94BF0041E070
:1004E00064E08AE00E94BF0041E065E08AE00E948B
:1004F000BF0041E066E08AE00E94BF0041E067E0A3
:100500008AE00E94BF002FEF81EE94E021508040EE
:100510009040E1F700C0000083E30E94190282E3EB
:100520000E94190288E20E9419028CE00E941902BE
:1005300081E00E94190286E00E94190282E00E9476
:1005400019020895CF93C82F41E061E084E10E9431
:10055000350140E062E084E10E94350140E063E063
:1005600084E10E9435018BB39C2F907F8F70892B83
:100570008BBB41E063E084E10E9435018FE99FE09D
:100580000197F1F700C0000040E063E084E10E94C1
:10059000350120E1C29FC00111249BB39F70892BBC
:1005A0008BBB41E063E084E10E9435018FE99FE06D
:1005B0000197F1F700C0000040E063E084E10E9491
:1005C00035018FE19EE40197F1F700C00000CF9163
:1005D0000895CF92DF92EF92FF921F93CF93DF9314
:1005E0006B017C0199235CF48DE20E94A202F094DD
:1005F000E094D094C094C11CD11CE11CF11CC11426
:10060000D104E104F104F9F480E30E94A20253C092
:10061000BE01660F771FCC0FDD1FCC0FDD1FCC0F87
:10062000DD1FC60FD71FC701B6012AE030E040E04A
:1006300050E00E941805C60FD71FC22ED32EE42EFD
:10064000F52E1F5F03C010E0C0E0D0E01C141D04B5
:100650001E041F0414F41A30DCF211502AC09E014B
:10066000ADECBCEC0E9437059695879596958795DD
:10067000969587959C01220F331F880F991F880F2D
:10068000991F880F991F820F931F9E01281B390BFA
:10069000C901805D0E94A2029E01ADECBCEC0E94EB
:1006A0003705EC01D695C795D695C795D695C795CC
:1006B00011501123A4F6DF91CF911F91FF90EF907D
:1006C000DF90CF9008950F931F93CF938C01C0E0DC
:1006D00003C00E94A202CF5FF801EC0FF11D8081E0
:1006E0008111F7CFCF911F910F910895CF93DF9391
:1006F00000D0CDB7DEB790E8998390EC9A83E1E023
:10070000F0E0EC0FFD1FE80FF11D8081860F0E94C5
:1007100019020F900F90DF91CF91089581E00E9410
:1007200019020895813051F018F0823069F008956F
:1007300040E062E08EE10E94BF00089540E067E083
:100740008EE10E94BF00089540E063E088E20E94CD
:10075000BF000895813049F018F0823059F00895B3
:1007600062E08EE10E94E201089567E08EE10E945E
:10077000E201089563E088E20E94E201089580E0CA
:100780000E94920381E00E94920382E00E94920301
:1007900080E00E94410081E00E94410082E00E94CE
:1007A00041000E94600263E080E00E94760380E6E0
:1007B00090E00E94630380E00E94AA0381E00E940F
:1007C000AA0382E00E94AA032FEF84E39CE0215059
:1007D00080409040E1F700C0000080E00E94AA0342
:1007E00081E00E94AA0382E00E94AA032FEF85EA1B
:1007F0009EE0215080409040E1F700C0000080E082
:100800000E94AA0381E00E94AA0382E00E94AA0338
:100810002FEF84E39CE0215080409040E1F700C03E
:10082000000080E00E94AA0381E00E94AA0382E007
:100830000E94AA032FEF85EA9EE02150804090405D
:10084000E1F700C0000080E00E94AA0381E00E945E
:10085000AA0382E00E94AA032FEF84E39CE02150C8
:1008600080409040E1F700C0000080E00E94AA03B1
:1008700081E00E94AA0382E00E94AA030E948E03E4
:1008800089E690E00E94630380E00E94AA032FEFB4
:1008900084E39CE0215080409040E1F700C00000DC
:1008A00081E00E94AA032FEF84E39CE02150804066
:1008B0009040E1F700C0000082E00E94AA032FEF01
:1008C00085EA9EE0215080409040E1F700C00000A2
:1008D00080E00E94AA032FEF84E39CE02150804037
:1008E0009040E1F700C0000081E00E94AA032FEFD2
:1008F00084E39CE0215080409040E1F700C000007C
:1009000082E00E94AA030E948E03C0E0C12CD12C79
:10091000760180E00E945900813031F580E00E942C
:10092000AA030E948E038BE790E00E94630360E0BD
:1009300081E00E9476038CE890E00E9463032FEF31
:1009400083ED90E3215080409040E1F700C000002B
:1009500080E00E94AA030E948E032FEFC21AD20ADF
:10096000E20AF20AC1E0D5CF81E00E94590081304D
:1009700029F50E94AA030E948E0386E990E00E9456
:10098000630360E081E00E94760387EA90E00E94C2
:1009900063038FEF93ED20E3815090402040E1F717
:1009A00000C0000081E00E94AA030E948E0382E042
:1009B000C80ED11CE11CF11CC1E0ABCF82E00E944B
:1009C0005900813031F582E00E94AA030E948E0313
:1009D00081EB90E00E94630360E081E00E94760377
:1009E00082EC90E00E9463039FEF23ED80E391503F
:1009F00020408040E1F700C0000082E00E94AA038E
:100A00000E948E0393E0C90ED11CE11CF11CC1E0D1
:100A100080CFCC2309F47DCF0E948E038CEC90E034
:100A20000E946303C701B6010E94E902C0E071CFD2
:100A3000052E97FB1EF400940E942F0557FD07D04A
:100A40000E94460507FC03D04EF40C942F055095E8
:100A50004095309521953F4F4F4F5F4F08959095AA
:100A60008095709561957F4F8F4F9F4F0895A29FFE
:100A7000B001B39FC001A39F700D811D1124911D72
:100A8000B29F700D811D1124911D0895A1E21A2EAF
:100A9000AA1BBB1BFD010DC0AA1FBB1FEE1FFF1F22
:100AA000A217B307E407F50720F0A21BB30BE40B72
:100AB000F50B661F771F881F991F1A9469F76095B9
:100AC0007095809590959B01AC01BD01CF01089573
:040AD000F894FFCFC8
:100AD40057454C434F4D4521005072657373206157
:100AE4006E7920427574746F6E2100427574746F50
:100AF4006E2030207072657373656400436C6963A3
:100B04006B73202B3100427574746F6E203120702A
:100B140072657373656400436C69636B73202B3275
:100B240000427574746F6E20322070726573736541
:100B34006400436C69636B73202B3300436C6963FB
:060B44006B733D20000070
:00000001FF
